S01400004D61737465725F73746174652E7372656324
S11300000C9433000C9450000C9450000C94500049
S11300100C9450000C9450000C9450000C9450001C
S11300200C9450000C9450000C9450000C9450000C
S11300300C9450000C94E7030C9450000C94500062
S11300400C9450000C9450000C9450000C945000EC
S11300500C9450009C02BC02DE02010323035D03E6
S113006083039C03BF0311241FBECFE5D8E0DEBF8A
S1130070CDBF10E0A0E6B0E0E0ECF8E002C00590EF
S11300800D92A83EB107D9F720E0A8EEB0E001C078
S11300901D92AD3EB207E1F70E947C020C945E040F
S11300A00C940000442319F04130C9F108958130C3
S11300B091F028F08230D9F0833029F108952AB3E1
S11300C081E090E002C0880F991F6A95E2F780955D
S11300D082238ABB089527B381E090E002C0880F91
S11300E0991F6A95E2F78095822387BB089524B30C
S11300F081E090E002C0880F991F6A95E2F780952D
S1130100822384BB089521B381E090E002C0880F6C
S1130110991F6A95E2F78095822381BB0895813007
S113012089F028F08230C9F0833011F108952AB3A0
S113013081E090E002C0880F991F6A95E2F7822B54
S11301408ABB089527B381E090E002C0880F991F0D
S11301506A95E2F7822B87BB089524B381E090E08F
S113016002C0880F991F6A95E2F7822B84BB089519
S113017021B381E090E002C0880F991F6A95E2F7ED
S1130180822B81BB0895442319F04130C9F10895AD
S1130190813091F028F08230D9F0833029F108952C
S11301A02BB381E090E002C0880F991F6A95E2F7B3
S11301B0809582238BBB089528B381E090E002C030
S11301C0880F991F6A95E2F78095822388BB08956A
S11301D025B381E090E002C0880F991F6A95E2F789
S11301E08095822385BB089522B381E090E002C00C
S11301F0880F991F6A95E2F78095822382BB089540
S1130200813089F028F08230C9F0833011F10895EB
S11302102BB381E090E002C0880F991F6A95E2F742
S1130220822B8BBB089528B381E090E002C0880F35
S1130230991F6A95E2F7822B88BB089525B381E064
S113024090E002C0880F991F6A95E2F7822B85BB64
S1130250089522B381E090E002C0880F991F6A9547
S1130260E2F7822B82BB0895813079F028F0823046
S1130270A9F08330E1F024C089B390E002C09595E1
S113028087956A95E2F78170089586B390E002C07D
S1130290959587956A95E2F78170089583B390E008
S11302A002C0959587956A95E2F78170089580B3A9
S11302B090E002C0959587956A95E2F7817008955C
S11302C080E0089540E060E081E00E9452000895DB
S11302D060E081E00E9434010895CF93C82F40E08C
S11302E061E081E00E94C30040E062E081E00E949E
S11302F0C30040E063E081E00E94C3008BB39C2F05
S1130300907F8F70892B8BBB41E063E081E00E947A
S1130310C3008FE99FE00197F1F700C0000040E0BF
S113032063E081E00E94C3002BB330E1C39FC001AE
S11303301124922F9F70892B8BBB41E063E081E0F5
S11303400E94C3008FE99FE00197F1F700C000000D
S113035040E063E081E00E94C3008FE39FE10197E6
S1130360F1F700C00000CF91089541E061E081E021
S11303700E94520041E062E081E00E94520041E0AC
S113038063E081E00E94520041E064E080E00E946A
S1130390520041E065E080E00E94520041E066E0E6
S11303A080E00E94520041E067E080E00E94520039
S11303B02FEF81EE94E0215080409040E1F700C09F
S11303C0000082E00E946D0183E30E946D0182E3DC
S11303D00E946D0188E20E946D018CE00E946D0113
S11303E081E00E946D0186E00E946D018FE39CE92B
S11303F00197F1F700C00000089581E00E946D01AB
S11304000895CF93C82F41E061E081E00E94C300CA
S113041040E062E081E00E94C30040E063E081E0EC
S11304200E94C3008BB39C2F907F8F70892B8BBB52
S113043041E063E081E00E94C3008FE99FE00197FF
S1130440F1F700C0000040E063E081E00E94C300D7
S11304502BB330E1C39FC0011124922F9F70892BCD
S11304608BBB41E063E081E00E94C3008FE99FE021
S11304700197F1F700C0000040E063E081E00E94D2
S1130480C3008FE39FE10197F1F700C00000CF9113
S11304900895CF93DF93EC018881882331F021966E
S11304A00E94010289918111FBCFDF91CF910895C0
S11304B0CF93DF93CDB7DEB72A970FB6F894DEBF9C
S11304C00FBECDBF2AE030E0AE014F5F5F4F0E9408
S11304D01204CE0101960E9449022A960FB6F8949E
S11304E0DEBF0FBECDBFDF91CF91089541E062E042
S11304F082E00E94520008950E94B501C4E068940D
S1130500EE24E3F80F2EF7E0FF2EF02D0F2EF6E089
S1130510DF2EF02D0F2EF5E0CF2EF02DD1E003E0ED
S113052012E08091EC0090E0FC0189309105E0F745
S1130530E65DFF4F0C940C040E94FD0180E690E000
S11305400E9449026091EC0070E080E090E00E941B
S1130550580280EC0E946D0186E690E00E944902F8
S1130560D093EC002FEF87EA91E621508040904031
S1130570E1F700C00000D5CF0E94FD0180E690E0C5
S11305800E9449026091EC0070E080E090E00E94DB
S1130590580280EC0E946D0180E790E00E944902BD
S11305A00E9476021093EC002FEF89E698E1215027
S11305B080409040E1F700C00000B3CF0E94FD01ED
S11305C080E690E00E9449026091EC0070E080E0D7
S11305D090E00E94580280EC0E946D018FE790E049
S11305E00E9449020E94020478940093EC002FEFC9
S11305F089E698E1215080409040E1F700C0000076
S113060090CF0E94FD0180E690E00E944902609133
S1130610EC0070E080E090E00E94580280EC0E94C0
S11306206D0182E990E00E9449020E946201C09338
S1130630EC002FEF89E698E1215080409040E1F7EB
S113064000C000006ECF0E94FD0180E690E00E9491
S113065049026091EC0070E080E090E00E94580252
S113066080EC0E946D0186EA90E00E9449020E949B
S11306706801813049F40E9468018130E1F3C0923D
S1130680EC00D093EA000FC08091EB00882319F0AE
S1130690C092EC0008C08091E8009091E900892B99
S11306A011F0C092EC002FEF80E792E021508040DF
S11306B09040E1F700C0000034CF0E94FD0180E6C5
S11306C090E00E9449026091EC0070E080E090E0CC
S11306D00E94580280EC0E946D0185EB90E00E941C
S11306E049028091EB0081110BC08091EA008111D5
S11306F007C08091E8009091E900892B09F411CF9B
S1130700D092EC000ECF0E94FD0180E690E00E94A2
S113071049026091EC0070E080E090E00E94580291
S113072080EC0E946D0182EC90E00E9449020E94DC
S1130730F603F092EC00F5CE0E94FD0180E690E015
S11307400E9449026091EC0070E080E090E00E9419
S1130750580280EC0E946D0180ED90E00E944902F5
S11307608091EB00882319F00E94FE0305C080915C
S1130770EA0081110E94FE03E092EC00D2CE0E94B6
S1130780FD0180E690E00E9449026091EC0070E077
S113079080E090E00E94580280EC0E946D018DED93
S11307A090E00E9449022FEF89E698E121508040B1
S11307B09040E1F700C000001092EB001092EA00B4
S11307C01092E9001092E800C093EC00AACE1F92A8
S11307D00F920FB60F9211248F938CB18093EB007C
S11307E08F910F900FBE0F901F901895BD9ABE98D1
S11307F0BF9ABC9A709883E58DB908958FB9779B99
S1130800FECF0895899A889888E98AB986E880BDD8
S113081087E689B910BC0895EE0FFF1F0590F49187
S1130820E02D09942532310520F4223010F00C9487
S11308301D04FA011082CA010895BB272A3051F41D
S1130840992342F4BDE290958095709561957F4F10
S11308508F4F9F4F0C942D04BB27FA01A62F6217CC
S1130860710581059105330B30FB66F0AA27660FED
S1130870771F881F991FAA1FA21710F0A21B639548
S11308803850A9F7A05DAA3308F0A95DA19336F703
S1130890B111B1931082CA010C944E04DC01FC0125
S11308A0672F71917723E1F7329704C07C916D93A0
S11308B070836291AE17BF07C8F30895F894FFCF11
S11308C0537461746500656C203327616C6C790026
S11308D04C4544305F496E697469616C697A0055AE
S11308E0534152545F496E69616C697A6174696FEE
S11308F06E00427574746F6E5F496E69616C697ADB
S11309006174696F6E00627574746F6E20776169CB
S113091074696E6700526563696576652064617405
S113092061005370695F696E7469616C697A65000E
S11309305370695F7472616E736D6974004E65778C
S10B09405F537461727400003E
S9030000FC
